:03000000020BD11F
:0C0BD100787FE4F6D8FD758131020AFF40
:100A7F000010002000100020001100FC00100020CA
:100A8F0000FC002000240020002700FE00240000AE
:100A9F000024002000480020002900FC0010002046
:100AAF000028002000440020008300FE000000000A
:100ABF000000004000000040007800A00049001036
:100ACF00004A0008004C0006004B00F800480000E8
:100ADF0000480000004B00F8007A0008004A0008A8
:100AEF000002000800020008000300F800020008DE
:0A09D7008B2B8A2C892D8F828E83D2
:1009E100E582158270021583ED1D70011CAE04AF06
:1009F100057C007D101208EEAB05AA047C007D0881
:100A0100AF82AE831208EE8E308F317C007D0212F0
:100A110008EEEF7805C333CE33CED8F9FDAC06EB43
:100A210025E0FFEA33FEEF2DFBEE3CFAAE30AF31AD
:100A31007C007D021208EEED2BFFEC3AAB07FAAE1B
:100A410083AF827C007D081208EE8C2E8D2FEB2562
:100A5100E0FFEA33AB2BAA2CA92D8F82F583120973
:100A610024FFAEF0C374079DFDEFA805088006CEF4
:0D0A7100A2E713CE13D8F8FF5307017E0053
:010A7E002255
:0E0800008C168D178B188A19891A8F828E8399
:10080E00E4F520F51FF51EF51D7D18FCAE1BE51C4D
:10081E007803C333CE33CED8F9F5228E217523005B
:10082E00752401D3E5829DEC6480F8E5836480989D
:10083E005008752500752601800BC3E5829DF526AF
:10084E00E5839CF525E5822401F528E43583F5271B
:10085E0085252385262485252985262AC3E52A95DF
:10086E0028E5276480F8E529648098506AE52A9582
:10087E0022E5216480F8E529648098400CE5246423
:10088E000145237004F523F524AF20AE1FAD1EAC39
:10089E001D780112096F8F208E1F8D1E8C1DAB18B7
:1008AE00AA19A91AAD17AC16AF24AE231209D7EFA9
:1008BE004E6012E5204401F520E51FF51FE51EF5FB
:1008CE001EE51DF51D0524E52470020523052AE508
:0F08DE002A708905298085AF20AE1FAD1EAC1D85
:0108ED0022E8
:100BA800E4FDFCC2A2C374109FFBE49EFAEBB505FA
:100BB80008EAB50404C2A18002D2A1D2A20DBD00E8
:080BC800010CED64104C70DB20
:010BD0002202
:080B6E008F178E168D158C14F3
:100B7600E4FBFAC2A3E5175401FFEF24FF92A4AFEA
:100B860017AE16AD15AC14780112095C8F178E16C8
:100B96008D158C14D2A30BBB00010AEB64184A70A6
:010BA600D27C
:010BA700222B
:060BDD00C2A000D2A0221C
:100AFF007510007511407512017513F4E4F50AF5C0
:100B0F000BE4F508F5097BFF7A0A797F85101B85C1
:100B1F00111CAD09AC08AF0BAE0A1208008F0F8E77
:100B2F000E8D0D8C0C120B6EE5092401FFE43508B8
:100B3F00FE120BA8120BDD0509E50970020508C3AB
:100B4F009410E5086480948040BC050BE50B70029F
:0F0B5F00050AC39418E50A6480948040A4809D21
:1008EE00C2D5EC30E709B2D5E4C39DFDE49CFCEE25
:1008FE0030E715B2D5E4C39FFFE49EFE120982C312
:10090E00E49DFDE49CFC800312098230D507C3E40C
:06091E009FFFE49EFE2293
:10092400BB0110E58229F582E5833AF583E0F5F011
:10093400A3E0225009E92582F886F008E622BBFEEE
:100944000AE92582F8E2F5F008E222E5832AF58334
:08095400E993F5F0A3E99322F9
:10095C00E8600FECC313FCED13FDEE13FEEF13FF79
:03096C00D8F1229D
:10096F00E8600FEFC333FFEE33FEED33FDEC33FCE6
:03097F00D8F1228A
:10098200BC000BBE0029EF8DF084FFADF022E4CC59
:10099200F875F008EF2FFFEE33FEEC33FCEE9DEC22
:1009A200984005FCEE9DFE0FD5F0E9E4CEFD22ED68
:1009B200F8F5F0EE8420D21CFEADF075F008EF2FB2
:1009C200FFED33FD4007985006D5F0F222C398FDA3
:0509D2000FD5F0EA2240
:00000001FF
