:03000000020800F3
:0C080000787FE4F6D8FD75816B02084794
:1008F1002060081020102011FC1020FC202420274B
:10090100FE24002420482029FC1020282044208394
:10091100FE00000040004078A049104A084C064BF8
:10092100F8480048004BF87A084A08020802080310
:10093100F802080040004078A049104A084C064BD4
:10094100F8480048004BF87A084A080208020803F0
:03095100F80208A1
:10098C00E4FDEDFB7A00C39410748094805020C277
:10099C00A0C374109FF582E49EF583E582B503082D
:0F09AC00EAB58304C2A18002D2A1D2A00D80D3EC
:0109BB002219
:10095500E4FEEEC3940874809480500FC2A3ED1397
:1009650092A4EDC313FDD2A30E80E7E4FEEEC3947B
:100975000874809480500FC2A3EF1392A4EFC313A1
:06098500FFD2A30E80E783
:01098B002249
:0A09BC00C2A2C2A500D2A2D2A52259
:10088C00756800756905E4F9E9C394037480948074
:02089C0050F416
:10089E00756A00756B32E56B156BAE6A7002156A80
:1008AE004E603DE4FCECC394107480948050E7E9F4
:1008BE00C43354E02408F8EC25E028F8E6FFE9C438
:1008CE003354E02409F8EC25E028F8E6FD1209552A
:1008DE00EC2401FFE433FE12098C1209BC0C80C516
:0308EE000980A3DB
:10080C0002088CE493A3F8E493A34003F68001F26E
:10081C0008DFF48029E493A3F85407240CC8C333ED
:10082C00C4540F4420C8834004F456800146F6DFBC
:10083C00E4800B01020408102040809008F1E47E53
:10084C00019360BCA3FF543F30E509541FFEE493B1
:10085C00A360010ECF54C025E060A840B8E493A378
:10086C00FAE493A3F8E493A3C8C582C8CAC583CAA3
:10087C00F0A3C8C582C8CAC583CADFE9DEE780BE5B
:0109540000A2
:00000001FF
