:03000000020800F3
:0C080000787FE4F6D8FD758112020847ED
:0A0906000808003C06063E66663E47
:10088C00E4FDEDFB7A00C39408748094805020C280
:10089C00B7C374089FF582E49EF583E582B503081F
:0F08AC00EAB58304D2918002C291D2B70D80D3F6
:0108BB00221A
:1008E7006307FFE4FEEEC3940874809480500FC240
:0E08F700B5EF1392B6EFC313FFD2B50E80E734
:0109050022CF
:06091100C29000D290220A
:1008BC00751100751232E4FCECC3940874809480BA
:1008CC0050F474082CF8E6FF1208E7EC2401FFE45E
:0B08DC0033FE12088C1209110C80DDA5
:10080C000208BCE493A3F8E493A34003F68001F23E
:10081C0008DFF48029E493A3F85407240CC8C333ED
:10082C00C4540F4420C8834004F456800146F6DFBC
:10083C00E4800B0102040810204080900906E47E3D
:10084C00019360BCA3FF543F30E509541FFEE493B1
:10085C00A360010ECF54C025E060A840B8E493A378
:10086C00FAE493A3F8E493A3C8C582C8CAC583CAA3
:10087C00F0A3C8C582C8CAC583CADFE9DEE780BE5B
:0109100000E6
:00000001FF
